{
  "contractName": "NeonERC20Wrapper",
  "abi": [
    {
      "inputs": [
        {
          "internalType": "string",
          "name": "_name",
          "type": "string"
        },
        {
          "internalType": "string",
          "name": "_symbol",
          "type": "string"
        },
        {
          "internalType": "bytes32",
          "name": "_tokenMint",
          "type": "bytes32"
        }
      ],
      "stateMutability": "nonpayable",
      "type": "constructor"
    },
    {
      "stateMutability": "nonpayable",
      "type": "fallback"
    },
    {
      "inputs": [],
      "name": "name",
      "outputs": [
        {
          "internalType": "string",
          "name": "",
          "type": "string"
        }
      ],
      "stateMutability": "view",
      "type": "function"
    },
    {
      "inputs": [],
      "name": "symbol",
      "outputs": [
        {
          "internalType": "string",
          "name": "",
          "type": "string"
        }
      ],
      "stateMutability": "view",
      "type": "function"
    },
    {
      "inputs": [],
      "name": "tokenMint",
      "outputs": [
        {
          "internalType": "bytes32",
          "name": "",
          "type": "bytes32"
        }
      ],
      "stateMutability": "view",
      "type": "function"
    },
    {
      "inputs": [],
      "name": "totalSupply",
      "outputs": [
        {
          "internalType": "uint256",
          "name": "",
          "type": "uint256"
        }
      ],
      "stateMutability": "view",
      "type": "function"
    },
    {
      "inputs": [
        {
          "internalType": "bytes32",
          "name": "spender",
          "type": "bytes32"
        },
        {
          "internalType": "uint64",
          "name": "value",
          "type": "uint64"
        }
      ],
      "name": "approveSolana",
      "outputs": [
        {
          "internalType": "bool",
          "name": "",
          "type": "bool"
        }
      ],
      "stateMutability": "nonpayable",
      "type": "function"
    }
  ],
  "bytecode": "0x60806040523480156200001157600080fd5b506040516200092d3803806200092d8339818101604052810190620000379190620001be565b82600090805190602001906200004f92919062000079565b5081600190805190602001906200006892919062000079565b508060028190555050505062000400565b8280546200008790620002f7565b90600052602060002090601f016020900481019282620000ab5760008555620000f7565b82601f10620000c657805160ff1916838001178555620000f7565b82800160010185558215620000f7579182015b82811115620000f6578251825591602001919060010190620000d9565b5b5090506200010691906200010a565b5090565b5b80821115620001255760008160009055506001016200010b565b5090565b6000620001406200013a8462000281565b62000258565b9050828152602081018484840111156200015f576200015e620003c6565b5b6200016c848285620002c1565b509392505050565b6000815190506200018581620003e6565b92915050565b600082601f830112620001a357620001a2620003c1565b5b8151620001b584826020860162000129565b91505092915050565b600080600060608486031215620001da57620001d9620003d0565b5b600084015167ffffffffffffffff811115620001fb57620001fa620003cb565b5b62000209868287016200018b565b935050602084015167ffffffffffffffff8111156200022d576200022c620003cb565b5b6200023b868287016200018b565b92505060406200024e8682870162000174565b9150509250925092565b60006200026462000277565b90506200027282826200032d565b919050565b6000604051905090565b600067ffffffffffffffff8211156200029f576200029e62000392565b5b620002aa82620003d5565b9050602081019050919050565b6000819050919050565b60005b83811015620002e1578082015181840152602081019050620002c4565b83811115620002f1576000848401525b50505050565b600060028204905060018216806200031057607f821691505b6020821081141562000327576200032662000363565b5b50919050565b6200033882620003d5565b810181811067ffffffffffffffff821117156200035a576200035962000392565b5b80604052505050565b7f4e487b7100000000000000000000000000000000000000000000000000000000600052602260045260246000fd5b7f4e487b7100000000000000000000000000000000000000000000000000000000600052604160045260246000fd5b600080fd5b600080fd5b600080fd5b600080fd5b6000601f19601f8301169050919050565b620003f181620002b7565b8114620003fd57600080fd5b50565b61051d80620004106000396000f3fe608060405234801561001057600080fd5b50600436106100455760003560e01c806306fdde031461013e57806395d89b411461015c578063af25c0771461017a57610046565b5b60006002546000366040516020016100609392919061036f565b604051602081830303815290604052905060008073ff0000000000000000000000000000000000000173ffffffffffffffffffffffffffffffffffffffff16836040516100ad9190610399565b600060405180830381855af49150503d80600081146100e8576040519150601f19603f3d011682016040523d82523d6000602084013e6100ed565b606091505b5091509150818190610135576040517f08c379a000000000000000000000000000000000000000000000000000000000815260040161012c91906103cb565b60405180910390fd5b50805160208201f35b610146610198565b60405161015391906103cb565b60405180910390f35b610164610226565b60405161017191906103cb565b60405180910390f35b6101826102b4565b60405161018f91906103b0565b60405180910390f35b600080546101a59061046b565b80601f01602080910402602001604051908101604052809291908181526020018280546101d19061046b565b801561021e5780601f106101f35761010080835404028352916020019161021e565b820191906000526020600020905b81548152906001019060200180831161020157829003601f168201915b505050505081565b600180546102339061046b565b80601f016020809104026020016040519081016040528092919081815260200182805461025f9061046b565b80156102ac5780601f10610281576101008083540402835291602001916102ac565b820191906000526020600020905b81548152906001019060200180831161028f57829003601f168201915b505050505081565b60025481565b6102c38161041f565b82525050565b6102da6102d58261041f565b61049d565b82525050565b60006102ec8385610403565b93506102f9838584610429565b82840190509392505050565b6000610310826103ed565b61031a8185610403565b935061032a818560208601610438565b80840191505092915050565b6000610341826103f8565b61034b818561040e565b935061035b818560208601610438565b610364816104d6565b840191505092915050565b600061037b82866102c9565b60208201915061038c8284866102e0565b9150819050949350505050565b60006103a58284610305565b915081905092915050565b60006020820190506103c560008301846102ba565b92915050565b600060208201905081810360008301526103e58184610336565b905092915050565b600081519050919050565b600081519050919050565b600081905092915050565b600082825260208201905092915050565b6000819050919050565b82818337600083830152505050565b60005b8381101561045657808201518184015260208101905061043b565b83811115610465576000848401525b50505050565b6000600282049050600182168061048357607f821691505b60208210811415610497576104966104a7565b5b50919050565b6000819050919050565b7f4e487b7100000000000000000000000000000000000000000000000000000000600052602260045260246000fd5b6000601f19601f830116905091905056fea2646970667358221220e0b47546cc4556e0449ee5d36a74e0af226bb5399afb2612fc9ddd03cd555f0264736f6c63430008070033",
  "immutableReferences": {},
  "source": "// SPDX-License-Identifier: MIT\n\npragma solidity >=0.5.12;\n\n\ninterface IERC20 {\n    function decimals() external view returns (uint8);\n    function totalSupply() external view returns (uint256);\n    function balanceOf(address who) external view returns (uint256);\n    function allowance(address owner, address spender) external view returns (uint256);\n    function transfer(address to, uint256 value) external returns (bool);\n    function approve(address spender, uint256 value) external returns (bool);\n    function transferFrom(address from, address to, uint256 value) external returns (bool);\n\n    event Transfer(address indexed from, address indexed to, uint256 value);\n    event Approval(address indexed owner, address indexed spender, uint256 value);\n    \n    \n    function approveSolana(bytes32 spender, uint64 value) external returns (bool);\n    event ApprovalSolana(address indexed owner, bytes32 indexed spender, uint64 value);\n}\n\n\n\n/*abstract*/ contract NeonERC20Wrapper /*is IERC20*/ {\n    address constant NeonERC20 = 0xff00000000000000000000000000000000000001;\n\n    string public name;\n    string public symbol;\n    bytes32 public tokenMint;\n\n    constructor(\n        string memory _name,\n        string memory _symbol,\n        bytes32 _tokenMint\n    ) {\n        name = _name;\n        symbol = _symbol;\n        tokenMint = _tokenMint;\n    }\n\n    fallback() external {\n        bytes memory call_data = abi.encodePacked(tokenMint, msg.data);\n        (bool success, bytes memory result) = NeonERC20.delegatecall(call_data);\n\n        require(success, string(result));\n\n        assembly {\n            return(add(result, 0x20), mload(result))\n        }\n    }\n}\n",
  "sourcePath": "/media/mich/speedwork/Solidity/erc20wrapper/contracts/SPL_ERC20_Wrapper.sol",
  "compiler": {
    "name": "solc",
    "version": "0.8.7+commit.e28d00a7.Emscripten.clang"
  },
  "schemaVersion": "3.4.3",
  "updatedAt": "2021-11-25T09:29:19.004Z",
  "devdoc": {
    "kind": "dev",
    "methods": {},
    "version": 1
  },
  "userdoc": {
    "kind": "user",
    "methods": {},
    "version": 1
  }
}